:080000000C9461000C94000057
:100008000C9400000C9400000C9400000C94000068
:100018000C9400000C9400000C9400000C948E00CA
:100028000C9400000C9400000C9400000C94000048
:100038000C9400000C9400000C9400000C94000038
:100048000C9400000C9400000C94000000000000C8
:100058000A00547261696E20436F6D6D696E6700A6
:100068004761746520436C6F736500547261696EF3
:100078002073706565643A006B6D2F687200547266
:1000880061696E206465706172747572650047619C
:100098007465204F70656E0080C001002D4E414E82
:1000A80000494E4600000600040054000200740295
:1000B800A00001007802A2000000F894EE27ECBB33
:1000C800F1E0FBBFEBBFE5BF8DE0A2E0BB27ED93FE
:1000D8008A95E9F780E098E0A0E6ED930197E9F7C3
:1000E800EEEAF0E085919591009761F0A591B591C0
:1000F80005901590BF01F00105900D920197E1F769
:10010800FB01F0CFEFE5EDBFE8E0EEBFC0E6D2E0DF
:100118000C94A500EA93FA93EFB7EA93E2ECEDBDED
:10012800E7EFECBDF20131962F01E2E0F0E0E415D3
:10013800F50511F4E0E0E5BBE991EFBFF991E9912C
:100148001895EFEFE7BBE0E0EFBDE5E0EEBDE2ECD0
:10015800EDBDE7EFECBDE0E0E7BDE6BDEBBDEABD18
:10016800E9BDE8BDE4E0E9BFA0E1BCD00E94C60259
:10017800EFEFE4BBE0E0E1BB7894829B23C0829B75
:1001880004C00E94CB020E94CE02849B11C00E9430
:10019800CB020E94E6020E940603F301A0916002CE
:1001A800B091610280916202909163020E940F03F4
:1001B800839B07C0E0E0E8BB0E94CB020E943E039D
:1001C80001C0DDCF839B1BC0839B04C00E94CB0270
:1001D8000E94CE02859B09C00E94CB020E94E602C3
:1001E800DF01CB01F3010E940F03829B07C0E0E00F
:1001F800E8BB0E94CB020E943E0301C0E5CFBDCF01
:10020800FFCFAA93EBB3EF70AE2FE881E07FEA2B24
:10021800EBBB8BE18A95F1F7DA9A8BE18A95F1F7D6
:10022800DA988BE18A95F1F789C0AA93A881E9DF6A
:10023800E881E295E883A881E4DF88EC90E0019703
:10024800F1F77CC0AA93E881F0E0EC58FD4FE0811B
:10025800A981AE0FEADFB980A88022960895A2E0AE
:100268000E945403ACE0E1DFA1E00E945403E0E007
:10027800AE2EBE2E0895AA93A881AA3011F0BD14FF
:1002880048F0E0E0EA93A394AA2DDCDFA881AA3025
:1002980009F454C0B394D89AA881C7DFD8984EC03F
:1002A800BA93AA931A93A981BA81ED91A983BA83C3
:1002B8001E2FE03019F0A12FDEDFF5CF10C0BA9362
:1002C800AA931A93E981FA813196E983FA833197DF
:1002D800E4911E2FE03019F0A12FCDDFF3CF188164
:1002E80023960895AA93EAB3E06FEABBD29AD09A0C
:1002F800D19ADA98D898D998D880E881E058E093CC
:100308007602E881E054E0937702A4E1B0E00E942D
:100318009E030E945A030E945A030E945A03A0E2B5
:1003280070DF80E991E00197F1F7A8E27EDFA4E0B1
:100338007CDFA5E87ADFA6E078DF91DF21960895D3
:10034800BA93AA932497E0E0E883E983EA83EFE38A
:10035800EB831A930A93EB85FC85EF3FAFEFFA071F
:1003680039F40E946203A4EAB0E00E94B902B1C065
:10037800EF3FAFE7FA0739F40E946203A5EAB0E05D
:100388000E94B902A6C0AC85AA2362F4E985FA8561
:100398006B857C850E94A8030E9467030E946C03FA
:1003A800EDE2EC93A885A73010F0E6E0E887188521
:1003B800E12F1150E03039F00E9473030E94780356
:1003C8000E947F03F5CF0E9484030E944E040E947E
:1003D800670310E0E0E0F0E060E87FE30E947F035D
:1003E8000E9484030E94310588F00E9473030E94D2
:1003F8008D030E947F031F5F173238F00E9462034B
:10040800A9EAB0E00E94B90264C0EACF103029F42A
:100418000E946C03E0E3EC932FC0E12F1150E03011
:1004280059F10E9473030E947803A0E0B0E080E0D5
:100438009FE30E944E04DF01CB010E94A2020E94AA
:100448007F030E9484030E94EC040E94DB030E2FAA
:100458000E946C03E02FE05DEC93E02FF0E00E9437
:1004680073030E9459050E9414040E949E040E946E
:1004780094030E949903D1CFE885E03031F10E94BE
:100488006C03EEE2EC93E885E150E887EF5FE9F072
:100498000E9494030E948D030E946703E985FA85F0
:1004A8006B857C850E94DB030E2F0E946C03E02F76
:1004B800E05DEC93E02FF0E00E9494030E94590560
:1004C8000E9414040E949903DECFAE81BF81E0E050
:1004D800EC93198108812D9608950E9472057B81FD
:1004E8006A81F981E88177FB770F67FD7160972F43
:1004F8009E5781F078F0983190F4AA27BB27882777
:1005080008948795B795A7959A95D1F7EA23FB2381
:10051800682305C0E8947727EE27FF2766276F77BB
:10052800769508F4606877F9A991B99189919991BC
:10053800EA17FB076807790797FB08950E94720579
:100548000E9463050E9471020E94680519F40E94C6
:100558005E0509C0E6F70E945E05A0E0B0E080E80D
:100568009FE30E94470424960895BA93AA93E991B9
:10057800F991A991B991CD0105900D920020E1F76B
:10058800FC010895E0E0EA93A0E00C9426010E94A3
:100598003301F8CFAAE5B0E00E946301E0E0EA93F6
:1005A800A1E00E942601A8E6B0E00E946301AAE04B
:1005B800B0E00E949E03E5E0E5BB44245524EFEF3C
:1005C800E8BB0895A3E7B0E00E946301A5E0B0E0AE
:1005D8000E949E03E0E0EA93A1E00E942601320116
:1005E80044245524A4EFB1E00E949E03F4010E9424
:1005F80059050E941404A6E6B6E686E690E40E9431
:100608009E040895E0936002F09361026093620291
:100618007093630208950E9459050E9414040E9471
:10062800EC04F0DFE0916002F091610260916202F7
:10063800709163020E946D05E2E0EA93A4E6B2E0DD
:100648000E94A401A4E6B2E00E945401A5E0B0E033
:100658000E949E03E8E0EA93A1E00E942601A0E838
:10066800B0E00E946301AAE0B0E00E949E03442427
:1006780055240895A6E8B0E00E946301E0E0EA93FB
:10068800A1E00E942601A6E9B0E00E946301EAE029
:10069800E5BBA0EDB7E00E949E03E0E0E5BB08954E
:1006A8000E941901A3E0B0E00C949E03A0E30E940D
:1006B800050180E991E00197F1F70895EE81FF8146
:1006C800FA93EA930895E987FA876B877C870895F8
:1006D800AE81BF811196AE83BF8311970895AA8119
:1006E800BB818C819D810895EDECFCEC6CEC7DE385
:1006F8000E949E040895EA83FB836C837D8308959A
:10070800EA81FB816C817D81A985BA858B859C8571
:100718000895E0E0F0E060E271E40E949E0408952C
:10072800A985BA858B859C8508950E9477050E94C6
:100738004704C9CF109639F080EA9FE00197F1F796
:10074800A8951197C9F7089530976040704009F04F
:1007580070580895552342F4503811F4E0FF04C04E
:100768003196691F791F6BF050E8572711F45F9392
:10077800CFC05F3F31F0660F000C57956795752F16
:1007880008955F9300200AF0CFC0C8C050E8192E22
:100798001522880F991F9527550F879550E8072E22
:1007A8000522660F771F7527550F6795089568947A
:1007B80001C0E8945F93F2DF703818F07F3F08F4C7
:1007C800A7C056E1571BAAF4519558300EF459307A
:1007D80030F0EFEFFFEF6FEF7FE777F91AC0772779
:1007E8005523B9F0EE0FFF1F661F771F5A95D1F7F3
:1007F80010C07727583028F0EF2FF62F672F585062
:10080800F9CF552331F076956795F795E7955A9581
:10081800D1F700200AF441D15F910895689401C08E
:10082800E894309760407040B1F0002426F07723B8
:1008380012F4009432D1172E7EE1112032F07A950D
:10084800EE0FFF1F661F111CF9CFEF2FF62F612D3A
:100858005F938ADF5F9108954F93AF01FD01DA013D
:10086800AB01BC01CA01402D012C142E4F910895F3
:10087800EA0FFB1F681F0895E095F0956095EF5FFC
:10088800FF4F6F4F08955F9381DF903871F150E803
:10089800152604C05F937ADF903839F1703821F15A
:1008A800572F591B2BF112F4D7DFFACF583118F014
:1008B800AA27BB278827583028F0AB2FB82F8827BE
:1008C8005850F9CF552329F08695B795A7955A958D
:1008D800D9F7502D512572F0CBDF38F46795F7958D
:1008E800E795739513F420C0B7DF3EDF5F91089555
:1008F800D8F7FBCFEA1BFB0B680B51F010F4009400
:10090800BBDF662392F3EE0FFF1F661F7A95CBF7C6
:10091800EE27FF27662777275F910895EFEFFFEF10
:100928006FE77FEF5F910895EFEFFFEF6FE77FE7E6
:100938005F9108955F932ADF703851F3903841F33F
:1009480001240894791F23F41CF300203AF3ECCF18
:100958000F921F932F933F934F9311272227992785
:10096800689FA0018F9F302D410D591F6B9F300D3F
:10097800411D591F8E9F27D0BF9F25D06A9F23D026
:10098800BE9F1DD0AF9F1BD0AE9F110D291F391FD1
:10099800491F591FE32FF42F652F522F4F913F9175
:1009A8002F911F910F9066232AF0550FEE1FFF1FFE
:1009B800661F02C073954BF2CDDE5F910895100D4E
:1009C800211D391F02C0200D311D491F591F0895CF
:1009D8005F93DCDE703821F411200AF49FCFA4CF96
:1009E800903809F495CF01240894970B1BF4D4F39D
:1009F8000020F3CF792F1F932F933F934F93112408
:100A08001127222733274427552790E2AE17BF071F
:100A18008607410730F0AE1BBF0B860B410B0894CD
:100A280001C08894551F221F331F111CAA1FBB1F0A
:100A3800881F441F9A9551F7F901612D4F913F91F5
:100A48002F911F91662332F0550FEE1FFF1F661F6F
:100A58007A9543F27FDE5F91089599239AF0772380
:100A680042F0971748F029F4AE17BF07860720F021
:100A780031F0989488940895989408940895189457
:100A8800889408957723C2F7971798F3A9F7EA1778
:100A9800FB07680788F399F3ECCFF095609570959C
:100AA800E195FF4F6F4F7F4F08956F2F660F660BCD
:100AB800762F0895E881F9816A817B810895A8815C
:100AC800B9818A819B810895E883F9836A837B834E
:100AD80008957A936A93FA93EA9308959A938A9376
:100AE800BA93AA930895182E862F612D192E972F41
:100AF800712D1B2EBF2FF12D1A2EAE2FE12D08952B
:00000001FF
